{
  "_format": "hh-sol-artifact-1",
  "contractName": "ApyOracle",
  "sourceName": "contracts/ApyOracle.sol",
  "abi": [
    {
      "inputs": [
        {
          "internalType": "address",
          "name": "dataFeed",
          "type": "address"
        }
      ],
      "stateMutability": "nonpayable",
      "type": "constructor"
    },
    {
      "anonymous": false,
      "inputs": [
        {
          "indexed": true,
          "internalType": "address",
          "name": "node",
          "type": "address"
        },
        {
          "indexed": false,
          "internalType": "uint16",
          "name": "apy",
          "type": "uint16"
        }
      ],
      "name": "NodeDataUpdated",
      "type": "event"
    },
    {
      "inputs": [],
      "name": "getDataFeedAddress",
      "outputs": [
        {
          "internalType": "address",
          "name": "",
          "type": "address"
        }
      ],
      "stateMutability": "view",
      "type": "function"
    },
    {
      "inputs": [
        {
          "internalType": "address",
          "name": "node",
          "type": "address"
        }
      ],
      "name": "getNodeData",
      "outputs": [
        {
          "components": [
            {
              "internalType": "address",
              "name": "account",
              "type": "address"
            },
            {
              "internalType": "uint256",
              "name": "pbftCount",
              "type": "uint256"
            },
            {
              "internalType": "uint16",
              "name": "rank",
              "type": "uint16"
            },
            {
              "components": [
                {
                  "internalType": "uint16",
                  "name": "apy",
                  "type": "uint16"
                },
                {
                  "internalType": "uint64",
                  "name": "fromBlock",
                  "type": "uint64"
                },
                {
                  "internalType": "uint64",
                  "name": "toBlock",
                  "type": "uint64"
                }
              ],
              "internalType": "struct IApyOracle.Yield",
              "name": "yield",
              "type": "tuple"
            }
          ],
          "internalType": "struct IApyOracle.NodeData",
          "name": "",
          "type": "tuple"
        }
      ],
      "stateMutability": "view",
      "type": "function"
    },
    {
      "inputs": [
        {
          "internalType": "address",
          "name": "",
          "type": "address"
        }
      ],
      "name": "nodes",
      "outputs": [
        {
          "internalType": "address",
          "name": "account",
          "type": "address"
        },
        {
          "internalType": "uint256",
          "name": "pbftCount",
          "type": "uint256"
        },
        {
          "internalType": "uint16",
          "name": "rank",
          "type": "uint16"
        },
        {
          "components": [
            {
              "internalType": "uint16",
              "name": "apy",
              "type": "uint16"
            },
            {
              "internalType": "uint64",
              "name": "fromBlock",
              "type": "uint64"
            },
            {
              "internalType": "uint64",
              "name": "toBlock",
              "type": "uint64"
            }
          ],
          "internalType": "struct IApyOracle.Yield",
          "name": "yield",
          "type": "tuple"
        }
      ],
      "stateMutability": "view",
      "type": "function"
    },
    {
      "inputs": [
        {
          "internalType": "address",
          "name": "node",
          "type": "address"
        },
        {
          "components": [
            {
              "internalType": "address",
              "name": "account",
              "type": "address"
            },
            {
              "internalType": "uint256",
              "name": "pbftCount",
              "type": "uint256"
            },
            {
              "internalType": "uint16",
              "name": "rank",
              "type": "uint16"
            },
            {
              "components": [
                {
                  "internalType": "uint16",
                  "name": "apy",
                  "type": "uint16"
                },
                {
                  "internalType": "uint64",
                  "name": "fromBlock",
                  "type": "uint64"
                },
                {
                  "internalType": "uint64",
                  "name": "toBlock",
                  "type": "uint64"
                }
              ],
              "internalType": "struct IApyOracle.Yield",
              "name": "yield",
              "type": "tuple"
            }
          ],
          "internalType": "struct IApyOracle.NodeData",
          "name": "data",
          "type": "tuple"
        }
      ],
      "name": "updateNodeData",
      "outputs": [],
      "stateMutability": "nonpayable",
      "type": "function"
    }
  ],
  "bytecode": "0x60a060405234801561001057600080fd5b50604051610ce3380380610ce3833981810160405281019061003291906100cf565b8073ffffffffffffffffffffffffffffffffffffffff1660808173ffffffffffffffffffffffffffffffffffffffff1681525050506100fc565b600080fd5b600073ffffffffffffffffffffffffffffffffffffffff82169050919050565b600061009c82610071565b9050919050565b6100ac81610091565b81146100b757600080fd5b50565b6000815190506100c9816100a3565b92915050565b6000602082840312156100e5576100e461006c565b5b60006100f3848285016100ba565b91505092915050565b608051610bc561011e6000396000818161034e01526103740152610bc56000f3fe608060405234801561001057600080fd5b506004361061004c5760003560e01c8063189a5a171461005157806338fc109014610084578063a50d1850146100b4578063f9eca359146100d2575b600080fd5b61006b6004803603810190610066919061068a565b6100ee565b60405161007b9493929190610770565b60405180910390f35b61009e6004803603810190610099919061068a565b6101da565b6040516100ab919061086a565b60405180910390f35b6100bc61034a565b6040516100c99190610885565b60405180910390f35b6100ec60048036038101906100e79190610a91565b610372565b005b60006020528060005260406000206000915090508060000160009054906101000a900473ffffffffffffffffffffffffffffffffffffffff16908060010154908060020160009054906101000a900461ffff1690806003016040518060600160405290816000820160009054906101000a900461ffff1661ffff1661ffff1681526020016000820160029054906101000a900467ffffffffffffffff1667ffffffffffffffff1667ffffffffffffffff16815260200160008201600a9054906101000a900467ffffffffffffffff1667ffffffffffffffff1667ffffffffffffffff1681525050905084565b6101e261059c565b6000808373ffffffffffffffffffffffffffffffffffffffff1673ffffffffffffffffffffffffffffffffffffffff1681526020019081526020016000206040518060800160405290816000820160009054906101000a900473ffffffffffffffffffffffffffffffffffffffff1673ffffffffffffffffffffffffffffffffffffffff1673ffffffffffffffffffffffffffffffffffffffff168152602001600182015481526020016002820160009054906101000a900461ffff1661ffff1661ffff168152602001600382016040518060600160405290816000820160009054906101000a900461ffff1661ffff1661ffff1681526020016000820160029054906101000a900467ffffffffffffffff1667ffffffffffffffff1667ffffffffffffffff16815260200160008201600a9054906101000a900467ffffffffffffffff1667ffffffffffffffff1667ffffffffffffffff1681525050815250509050919050565b60007f0000000000000000000000000000000000000000000000000000000000000000905090565b7f000000000000000000000000000000000000000000000000000000000000000073ffffffffffffffffffffffffffffffffffffffff163373ffffffffffffffffffffffffffffffffffffffff1614610400576040517f08c379a00000000000000000000000000000000000000000000000000000000081526004016103f790610b54565b60405180910390fd5b806000808473ffffffffffffffffffffffffffffffffffffffff1673ffffffffffffffffffffffffffffffffffffffff16815260200190815260200160002060008201518160000160006101000a81548173ffffffffffffffffffffffffffffffffffffffff021916908373ffffffffffffffffffffffffffffffffffffffff1602179055506020820151816001015560408201518160020160006101000a81548161ffff021916908361ffff16021790555060608201518160030160008201518160000160006101000a81548161ffff021916908361ffff16021790555060208201518160000160026101000a81548167ffffffffffffffff021916908367ffffffffffffffff160217905550604082015181600001600a6101000a81548167ffffffffffffffff021916908367ffffffffffffffff16021790555050509050508173ffffffffffffffffffffffffffffffffffffffff167f297b3aad4428805be0ffd9c7f0b0dee72182e77a57e696e60209c49b2496e7c38260600151600001516040516105909190610b74565b60405180910390a25050565b6040518060800160405280600073ffffffffffffffffffffffffffffffffffffffff16815260200160008152602001600061ffff1681526020016105de6105e4565b81525090565b6040518060600160405280600061ffff168152602001600067ffffffffffffffff168152602001600067ffffffffffffffff1681525090565b6000604051905090565b600080fd5b600073ffffffffffffffffffffffffffffffffffffffff82169050919050565b60006106578261062c565b9050919050565b6106678161064c565b811461067257600080fd5b50565b6000813590506106848161065e565b92915050565b6000602082840312156106a05761069f610627565b5b60006106ae84828501610675565b91505092915050565b6106c08161064c565b82525050565b6000819050919050565b6106d9816106c6565b82525050565b600061ffff82169050919050565b6106f6816106df565b82525050565b610705816106df565b82525050565b600067ffffffffffffffff82169050919050565b6107288161070b565b82525050565b60608201600082015161074460008501826106fc565b506020820151610757602085018261071f565b50604082015161076a604085018261071f565b50505050565b600060c08201905061078560008301876106b7565b61079260208301866106d0565b61079f60408301856106ed565b6107ac606083018461072e565b95945050505050565b6107be8161064c565b82525050565b6107cd816106c6565b82525050565b6060820160008201516107e960008501826106fc565b5060208201516107fc602085018261071f565b50604082015161080f604085018261071f565b50505050565b60c08201600082015161082b60008501826107b5565b50602082015161083e60208501826107c4565b50604082015161085160408501826106fc565b50606082015161086460608501826107d3565b50505050565b600060c08201905061087f6000830184610815565b92915050565b600060208201905061089a60008301846106b7565b92915050565b600080fd5b6000601f19601f8301169050919050565b7f4e487b7100000000000000000000000000000000000000000000000000000000600052604160045260246000fd5b6108ee826108a5565b810181811067ffffffffffffffff8211171561090d5761090c6108b6565b5b80604052505050565b600061092061061d565b905061092c82826108e5565b919050565b61093a816106c6565b811461094557600080fd5b50565b60008135905061095781610931565b92915050565b610966816106df565b811461097157600080fd5b50565b6000813590506109838161095d565b92915050565b6109928161070b565b811461099d57600080fd5b50565b6000813590506109af81610989565b92915050565b6000606082840312156109cb576109ca6108a0565b5b6109d56060610916565b905060006109e584828501610974565b60008301525060206109f9848285016109a0565b6020830152506040610a0d848285016109a0565b60408301525092915050565b600060c08284031215610a2f57610a2e6108a0565b5b610a396080610916565b90506000610a4984828501610675565b6000830152506020610a5d84828501610948565b6020830152506040610a7184828501610974565b6040830152506060610a85848285016109b5565b60608301525092915050565b60008060e08385031215610aa857610aa7610627565b5b6000610ab685828601610675565b9250506020610ac785828601610a19565b9150509250929050565b600082825260208201905092915050565b7f4170794f7261636c653a2063616c6c6572206973206e6f74207468652064617460008201527f6120666565640000000000000000000000000000000000000000000000000000602082015250565b6000610b3e602683610ad1565b9150610b4982610ae2565b604082019050919050565b60006020820190508181036000830152610b6d81610b31565b9050919050565b6000602082019050610b8960008301846106ed565b9291505056fea26469706673582212206be123c4698793c8f522c79042c9ae6f34ae150b689a49f888c649c056cf204c64736f6c63430008110033",
  "linkReferences": {},
  "deployedLinkReferences": {}
}