{
  "_format": "hh-sol-artifact-1",
  "contractName": "ApyOracle",
  "sourceName": "contracts/ApyOracle.sol",
  "abi": [
    {
      "inputs": [
        {
          "internalType": "address",
          "name": "dataFeed",
          "type": "address"
        }
      ],
      "stateMutability": "nonpayable",
      "type": "constructor"
    },
    {
      "anonymous": false,
      "inputs": [
        {
          "indexed": true,
          "internalType": "address",
          "name": "node",
          "type": "address"
        },
        {
          "indexed": false,
          "internalType": "uint16",
          "name": "apy",
          "type": "uint16"
        },
        {
          "indexed": false,
          "internalType": "uint256",
          "name": "pbftCount",
          "type": "uint256"
        }
      ],
      "name": "NodeDataUpdated",
      "type": "event"
    },
    {
      "inputs": [],
      "name": "getDataFeedAddress",
      "outputs": [
        {
          "internalType": "address",
          "name": "",
          "type": "address"
        }
      ],
      "stateMutability": "view",
      "type": "function"
    },
    {
      "inputs": [
        {
          "internalType": "address",
          "name": "node",
          "type": "address"
        }
      ],
      "name": "getNodeData",
      "outputs": [
        {
          "components": [
            {
              "internalType": "address",
              "name": "account",
              "type": "address"
            },
            {
              "internalType": "uint16",
              "name": "rank",
              "type": "uint16"
            },
            {
              "internalType": "uint16",
              "name": "apy",
              "type": "uint16"
            },
            {
              "internalType": "uint64",
              "name": "fromBlock",
              "type": "uint64"
            },
            {
              "internalType": "uint64",
              "name": "toBlock",
              "type": "uint64"
            },
            {
              "internalType": "uint256",
              "name": "pbftCount",
              "type": "uint256"
            }
          ],
          "internalType": "struct IApyOracle.NodeData",
          "name": "",
          "type": "tuple"
        }
      ],
      "stateMutability": "view",
      "type": "function"
    },
    {
      "inputs": [
        {
          "internalType": "address",
          "name": "",
          "type": "address"
        }
      ],
      "name": "nodes",
      "outputs": [
        {
          "internalType": "address",
          "name": "account",
          "type": "address"
        },
        {
          "internalType": "uint16",
          "name": "rank",
          "type": "uint16"
        },
        {
          "internalType": "uint16",
          "name": "apy",
          "type": "uint16"
        },
        {
          "internalType": "uint64",
          "name": "fromBlock",
          "type": "uint64"
        },
        {
          "internalType": "uint64",
          "name": "toBlock",
          "type": "uint64"
        },
        {
          "internalType": "uint256",
          "name": "pbftCount",
          "type": "uint256"
        }
      ],
      "stateMutability": "view",
      "type": "function"
    },
    {
      "inputs": [
        {
          "internalType": "address",
          "name": "node",
          "type": "address"
        },
        {
          "components": [
            {
              "internalType": "address",
              "name": "account",
              "type": "address"
            },
            {
              "internalType": "uint16",
              "name": "rank",
              "type": "uint16"
            },
            {
              "internalType": "uint16",
              "name": "apy",
              "type": "uint16"
            },
            {
              "internalType": "uint64",
              "name": "fromBlock",
              "type": "uint64"
            },
            {
              "internalType": "uint64",
              "name": "toBlock",
              "type": "uint64"
            },
            {
              "internalType": "uint256",
              "name": "pbftCount",
              "type": "uint256"
            }
          ],
          "internalType": "struct IApyOracle.NodeData",
          "name": "data",
          "type": "tuple"
        }
      ],
      "name": "updateNodeData",
      "outputs": [],
      "stateMutability": "nonpayable",
      "type": "function"
    }
  ],
  "bytecode": "0x60a060405234801561001057600080fd5b50604051610c02380380610c02833981810160405281019061003291906100cf565b8073ffffffffffffffffffffffffffffffffffffffff1660808173ffffffffffffffffffffffffffffffffffffffff1681525050506100fc565b600080fd5b600073ffffffffffffffffffffffffffffffffffffffff82169050919050565b600061009c82610071565b9050919050565b6100ac81610091565b81146100b757600080fd5b50565b6000815190506100c9816100a3565b92915050565b6000602082840312156100e5576100e461006c565b5b60006100f3848285016100ba565b91505092915050565b608051610ae461011e600039600081816102ee01526105110152610ae46000f3fe608060405234801561001057600080fd5b506004361061004c5760003560e01c8063189a5a171461005157806338fc1090146100865780638ee06535146100b6578063a50d1850146100d2575b600080fd5b61006b6004803603810190610066919061060a565b6100f0565b60405161007d9695949392919061069f565b60405180910390f35b6100a0600480360381019061009b919061060a565b610190565b6040516100ad91906107b7565b60405180910390f35b6100d060048036038101906100cb9190610987565b6102ec565b005b6100da61050d565b6040516100e791906109c7565b60405180910390f35b60006020528060005260406000206000915090508060000160009054906101000a900473ffffffffffffffffffffffffffffffffffffffff16908060000160149054906101000a900461ffff16908060000160169054906101000a900461ffff16908060000160189054906101000a900467ffffffffffffffff16908060010160009054906101000a900467ffffffffffffffff16908060020154905086565b610198610535565b6000808373ffffffffffffffffffffffffffffffffffffffff1673ffffffffffffffffffffffffffffffffffffffff1681526020019081526020016000206040518060c00160405290816000820160009054906101000a900473ffffffffffffffffffffffffffffffffffffffff1673ffffffffffffffffffffffffffffffffffffffff1673ffffffffffffffffffffffffffffffffffffffff1681526020016000820160149054906101000a900461ffff1661ffff1661ffff1681526020016000820160169054906101000a900461ffff1661ffff1661ffff1681526020016000820160189054906101000a900467ffffffffffffffff1667ffffffffffffffff1667ffffffffffffffff1681526020016001820160009054906101000a900467ffffffffffffffff1667ffffffffffffffff1667ffffffffffffffff1681526020016002820154815250509050919050565b7f000000000000000000000000000000000000000000000000000000000000000073ffffffffffffffffffffffffffffffffffffffff163373ffffffffffffffffffffffffffffffffffffffff161461037a576040517f08c379a000000000000000000000000000000000000000000000000000000000815260040161037190610a65565b60405180910390fd5b806000808473ffffffffffffffffffffffffffffffffffffffff1673ffffffffffffffffffffffffffffffffffffffff16815260200190815260200160002060008201518160000160006101000a81548173ffffffffffffffffffffffffffffffffffffffff021916908373ffffffffffffffffffffffffffffffffffffffff16021790555060208201518160000160146101000a81548161ffff021916908361ffff16021790555060408201518160000160166101000a81548161ffff021916908361ffff16021790555060608201518160000160186101000a81548167ffffffffffffffff021916908367ffffffffffffffff16021790555060808201518160010160006101000a81548167ffffffffffffffff021916908367ffffffffffffffff16021790555060a082015181600201559050508173ffffffffffffffffffffffffffffffffffffffff167ff39bff1d19208897d6a4b343f9307b7c7d2df66be3d167cea7aa23e73a1f889682604001518360a00151604051610501929190610a85565b60405180910390a25050565b60007f0000000000000000000000000000000000000000000000000000000000000000905090565b6040518060c00160405280600073ffffffffffffffffffffffffffffffffffffffff168152602001600061ffff168152602001600061ffff168152602001600067ffffffffffffffff168152602001600067ffffffffffffffff168152602001600081525090565b6000604051905090565b600080fd5b600073ffffffffffffffffffffffffffffffffffffffff82169050919050565b60006105d7826105ac565b9050919050565b6105e7816105cc565b81146105f257600080fd5b50565b600081359050610604816105de565b92915050565b6000602082840312156106205761061f6105a7565b5b600061062e848285016105f5565b91505092915050565b610640816105cc565b82525050565b600061ffff82169050919050565b61065d81610646565b82525050565b600067ffffffffffffffff82169050919050565b61068081610663565b82525050565b6000819050919050565b61069981610686565b82525050565b600060c0820190506106b46000830189610637565b6106c16020830188610654565b6106ce6040830187610654565b6106db6060830186610677565b6106e86080830185610677565b6106f560a0830184610690565b979650505050505050565b610709816105cc565b82525050565b61071881610646565b82525050565b61072781610663565b82525050565b61073681610686565b82525050565b60c0820160008201516107526000850182610700565b506020820151610765602085018261070f565b506040820151610778604085018261070f565b50606082015161078b606085018261071e565b50608082015161079e608085018261071e565b5060a08201516107b160a085018261072d565b50505050565b600060c0820190506107cc600083018461073c565b92915050565b600080fd5b6000601f19601f8301169050919050565b7f4e487b7100000000000000000000000000000000000000000000000000000000600052604160045260246000fd5b610820826107d7565b810181811067ffffffffffffffff8211171561083f5761083e6107e8565b5b80604052505050565b600061085261059d565b905061085e8282610817565b919050565b61086c81610646565b811461087757600080fd5b50565b60008135905061088981610863565b92915050565b61089881610663565b81146108a357600080fd5b50565b6000813590506108b58161088f565b92915050565b6108c481610686565b81146108cf57600080fd5b50565b6000813590506108e1816108bb565b92915050565b600060c082840312156108fd576108fc6107d2565b5b61090760c0610848565b90506000610917848285016105f5565b600083015250602061092b8482850161087a565b602083015250604061093f8482850161087a565b6040830152506060610953848285016108a6565b6060830152506080610967848285016108a6565b60808301525060a061097b848285016108d2565b60a08301525092915050565b60008060e0838503121561099e5761099d6105a7565b5b60006109ac858286016105f5565b92505060206109bd858286016108e7565b9150509250929050565b60006020820190506109dc6000830184610637565b92915050565b600082825260208201905092915050565b7f4170794f7261636c653a2063616c6c6572206973206e6f74207468652064617460008201527f6120666565640000000000000000000000000000000000000000000000000000602082015250565b6000610a4f6026836109e2565b9150610a5a826109f3565b604082019050919050565b60006020820190508181036000830152610a7e81610a42565b9050919050565b6000604082019050610a9a6000830185610654565b610aa76020830184610690565b939250505056fea2646970667358221220589dbf9410c9dc91151d30ef15eed784b97793f63cd9f838170eed1d9d51a6f064736f6c63430008110033",
  "linkReferences": {},
  "deployedLinkReferences": {}
}