{
  "_format": "hh-sol-artifact-1",
  "contractName": "NodeContinuityOracle",
  "sourceName": "contracts/NodeContinuityOracle.sol",
  "abi": [
    {
      "inputs": [
        {
          "internalType": "address",
          "name": "dataFeed",
          "type": "address"
        }
      ],
      "stateMutability": "nonpayable",
      "type": "constructor"
    },
    {
      "anonymous": false,
      "inputs": [
        {
          "indexed": true,
          "internalType": "address",
          "name": "node",
          "type": "address"
        },
        {
          "indexed": false,
          "internalType": "uint64",
          "name": "timestamp",
          "type": "uint64"
        },
        {
          "indexed": false,
          "internalType": "uint256",
          "name": "pbftCount",
          "type": "uint256"
        }
      ],
      "name": "NodeDataUpdated",
      "type": "event"
    },
    {
      "inputs": [],
      "name": "getDataFeedAddress",
      "outputs": [
        {
          "internalType": "address",
          "name": "",
          "type": "address"
        }
      ],
      "stateMutability": "view",
      "type": "function"
    },
    {
      "inputs": [
        {
          "internalType": "uint64",
          "name": "timestamp",
          "type": "uint64"
        }
      ],
      "name": "getNodeStatsFrom",
      "outputs": [
        {
          "components": [
            {
              "internalType": "uint64",
              "name": "dagsCount",
              "type": "uint64"
            },
            {
              "internalType": "uint64",
              "name": "lastDagTimestamp",
              "type": "uint64"
            },
            {
              "internalType": "uint64",
              "name": "lastPbftTimestamp",
              "type": "uint64"
            },
            {
              "internalType": "uint64",
              "name": "lastTransactionTimestamp",
              "type": "uint64"
            },
            {
              "internalType": "uint64",
              "name": "pbftCount",
              "type": "uint64"
            },
            {
              "internalType": "uint64",
              "name": "transactionsCount",
              "type": "uint64"
            }
          ],
          "internalType": "struct INodeContinuityOracle.NodeStats",
          "name": "",
          "type": "tuple"
        }
      ],
      "stateMutability": "view",
      "type": "function"
    },
    {
      "inputs": [
        {
          "internalType": "address",
          "name": "node",
          "type": "address"
        }
      ],
      "name": "getNodeUpdateTimestamps",
      "outputs": [
        {
          "internalType": "uint64[]",
          "name": "timestamps",
          "type": "uint64[]"
        }
      ],
      "stateMutability": "view",
      "type": "function"
    },
    {
      "inputs": [
        {
          "internalType": "uint64",
          "name": "",
          "type": "uint64"
        }
      ],
      "name": "nodeStats",
      "outputs": [
        {
          "internalType": "uint64",
          "name": "dagsCount",
          "type": "uint64"
        },
        {
          "internalType": "uint64",
          "name": "lastDagTimestamp",
          "type": "uint64"
        },
        {
          "internalType": "uint64",
          "name": "lastPbftTimestamp",
          "type": "uint64"
        },
        {
          "internalType": "uint64",
          "name": "lastTransactionTimestamp",
          "type": "uint64"
        },
        {
          "internalType": "uint64",
          "name": "pbftCount",
          "type": "uint64"
        },
        {
          "internalType": "uint64",
          "name": "transactionsCount",
          "type": "uint64"
        }
      ],
      "stateMutability": "view",
      "type": "function"
    },
    {
      "inputs": [
        {
          "internalType": "address",
          "name": "",
          "type": "address"
        },
        {
          "internalType": "uint256",
          "name": "",
          "type": "uint256"
        }
      ],
      "name": "nodeStatsUpdateTimestamps",
      "outputs": [
        {
          "internalType": "uint64",
          "name": "",
          "type": "uint64"
        }
      ],
      "stateMutability": "view",
      "type": "function"
    },
    {
      "inputs": [
        {
          "internalType": "address",
          "name": "node",
          "type": "address"
        },
        {
          "internalType": "uint64",
          "name": "timestamp",
          "type": "uint64"
        },
        {
          "components": [
            {
              "internalType": "uint64",
              "name": "dagsCount",
              "type": "uint64"
            },
            {
              "internalType": "uint64",
              "name": "lastDagTimestamp",
              "type": "uint64"
            },
            {
              "internalType": "uint64",
              "name": "lastPbftTimestamp",
              "type": "uint64"
            },
            {
              "internalType": "uint64",
              "name": "lastTransactionTimestamp",
              "type": "uint64"
            },
            {
              "internalType": "uint64",
              "name": "pbftCount",
              "type": "uint64"
            },
            {
              "internalType": "uint64",
              "name": "transactionsCount",
              "type": "uint64"
            }
          ],
          "internalType": "struct INodeContinuityOracle.NodeStats",
          "name": "data",
          "type": "tuple"
        }
      ],
      "name": "updateNodeStats",
      "outputs": [],
      "stateMutability": "nonpayable",
      "type": "function"
    }
  ],
  "bytecode": "0x60a06040523480156200001157600080fd5b5060405162001101380380620011018339818101604052810190620000379190620000dc565b8073ffffffffffffffffffffffffffffffffffffffff1660808173ffffffffffffffffffffffffffffffffffffffff1681525050506200010e565b600080fd5b600073ffffffffffffffffffffffffffffffffffffffff82169050919050565b6000620000a48262000077565b9050919050565b620000b68162000097565b8114620000c257600080fd5b50565b600081519050620000d681620000ab565b92915050565b600060208284031215620000f557620000f462000072565b5b60006200010584828501620000c5565b91505092915050565b608051610fd06200013160003960008181610335015261035b0152610fd06000f3fe608060405234801561001057600080fd5b50600436106100625760003560e01c806340e7c1171461006757806342564141146100975780634f39156b146100c7578063a50d1850146100fc578063e8578b361461011a578063fc4ec1c214610136575b600080fd5b610081600480360381019061007c9190610977565b610166565b60405161008e91906109da565b60405180910390f35b6100b160048036038101906100ac91906109f5565b6101b3565b6040516100be9190610ae0565b60405180910390f35b6100e160048036038101906100dc9190610b2e565b61027d565b6040516100f396959493929190610b5b565b60405180910390f35b610104610331565b6040516101119190610bcb565b60405180910390f35b610134600480360381019061012f9190610d17565b610359565b005b610150600480360381019061014b9190610b2e565b6106f5565b60405161015d9190610de6565b60405180910390f35b6000602052816000526040600020818154811061018257600080fd5b9060005260206000209060049182820401919006600802915091509054906101000a900467ffffffffffffffff1681565b60606000808373ffffffffffffffffffffffffffffffffffffffff1673ffffffffffffffffffffffffffffffffffffffff16815260200190815260200160002080548060200260200160405190810160405280929190818152602001828054801561027157602002820191906000526020600020906000905b82829054906101000a900467ffffffffffffffff1667ffffffffffffffff168152602001906008019060208260070104928301926001038202915080841161022c5790505b50505050509050919050565b60016020528060005260406000206000915090508060000160009054906101000a900467ffffffffffffffff16908060000160089054906101000a900467ffffffffffffffff16908060000160109054906101000a900467ffffffffffffffff16908060000160189054906101000a900467ffffffffffffffff16908060010160009054906101000a900467ffffffffffffffff16908060010160089054906101000a900467ffffffffffffffff16905086565b60007f0000000000000000000000000000000000000000000000000000000000000000905090565b7f000000000000000000000000000000000000000000000000000000000000000073ffffffffffffffffffffffffffffffffffffffff163373ffffffffffffffffffffffffffffffffffffffff16146103e7576040517f08c379a00000000000000000000000000000000000000000000000000000000081526004016103de90610e84565b60405180910390fd5b6000600160008467ffffffffffffffff1667ffffffffffffffff16815260200190815260200160002060000160089054906101000a900467ffffffffffffffff1667ffffffffffffffff16148061048657506000600160008467ffffffffffffffff1667ffffffffffffffff16815260200190815260200160002060000160089054906101000a900467ffffffffffffffff1667ffffffffffffffff16145b6104c5576040517f08c379a00000000000000000000000000000000000000000000000000000000081526004016104bc90610f16565b60405180910390fd5b80600160008467ffffffffffffffff1667ffffffffffffffff16815260200190815260200160002060008201518160000160006101000a81548167ffffffffffffffff021916908367ffffffffffffffff16021790555060208201518160000160086101000a81548167ffffffffffffffff021916908367ffffffffffffffff16021790555060408201518160000160106101000a81548167ffffffffffffffff021916908367ffffffffffffffff16021790555060608201518160000160186101000a81548167ffffffffffffffff021916908367ffffffffffffffff16021790555060808201518160010160006101000a81548167ffffffffffffffff021916908367ffffffffffffffff16021790555060a08201518160010160086101000a81548167ffffffffffffffff021916908367ffffffffffffffff1602179055509050506000808473ffffffffffffffffffffffffffffffffffffffff1673ffffffffffffffffffffffffffffffffffffffff1681526020019081526020016000208290806001815401808255809150506001900390600052602060002090600491828204019190066008029091909190916101000a81548167ffffffffffffffff021916908367ffffffffffffffff1602179055508273ffffffffffffffffffffffffffffffffffffffff167f5ca455ba0dd919bfb0153648c9b44a706c8f7640acdd22269337eb84938473ab8383608001516040516106e8929190610f71565b60405180910390a2505050565b6106fd610862565b600160008367ffffffffffffffff1667ffffffffffffffff1681526020019081526020016000206040518060c00160405290816000820160009054906101000a900467ffffffffffffffff1667ffffffffffffffff1667ffffffffffffffff1681526020016000820160089054906101000a900467ffffffffffffffff1667ffffffffffffffff1667ffffffffffffffff1681526020016000820160109054906101000a900467ffffffffffffffff1667ffffffffffffffff1667ffffffffffffffff1681526020016000820160189054906101000a900467ffffffffffffffff1667ffffffffffffffff1667ffffffffffffffff1681526020016001820160009054906101000a900467ffffffffffffffff1667ffffffffffffffff1667ffffffffffffffff1681526020016001820160089054906101000a900467ffffffffffffffff1667ffffffffffffffff1667ffffffffffffffff16815250509050919050565b6040518060c00160405280600067ffffffffffffffff168152602001600067ffffffffffffffff168152602001600067ffffffffffffffff168152602001600067ffffffffffffffff168152602001600067ffffffffffffffff168152602001600067ffffffffffffffff1681525090565b6000604051905090565b600080fd5b600073ffffffffffffffffffffffffffffffffffffffff82169050919050565b600061090e826108e3565b9050919050565b61091e81610903565b811461092957600080fd5b50565b60008135905061093b81610915565b92915050565b6000819050919050565b61095481610941565b811461095f57600080fd5b50565b6000813590506109718161094b565b92915050565b6000806040838503121561098e5761098d6108de565b5b600061099c8582860161092c565b92505060206109ad85828601610962565b9150509250929050565b600067ffffffffffffffff82169050919050565b6109d4816109b7565b82525050565b60006020820190506109ef60008301846109cb565b92915050565b600060208284031215610a0b57610a0a6108de565b5b6000610a198482850161092c565b91505092915050565b600081519050919050565b600082825260208201905092915050565b6000819050602082019050919050565b610a57816109b7565b82525050565b6000610a698383610a4e565b60208301905092915050565b6000602082019050919050565b6000610a8d82610a22565b610a978185610a2d565b9350610aa283610a3e565b8060005b83811015610ad3578151610aba8882610a5d565b9750610ac583610a75565b925050600181019050610aa6565b5085935050505092915050565b60006020820190508181036000830152610afa8184610a82565b905092915050565b610b0b816109b7565b8114610b1657600080fd5b50565b600081359050610b2881610b02565b92915050565b600060208284031215610b4457610b436108de565b5b6000610b5284828501610b19565b91505092915050565b600060c082019050610b7060008301896109cb565b610b7d60208301886109cb565b610b8a60408301876109cb565b610b9760608301866109cb565b610ba460808301856109cb565b610bb160a08301846109cb565b979650505050505050565b610bc581610903565b82525050565b6000602082019050610be06000830184610bbc565b92915050565b600080fd5b6000601f19601f8301169050919050565b7f4e487b7100000000000000000000000000000000000000000000000000000000600052604160045260246000fd5b610c3482610beb565b810181811067ffffffffffffffff82111715610c5357610c52610bfc565b5b80604052505050565b6000610c666108d4565b9050610c728282610c2b565b919050565b600060c08284031215610c8d57610c8c610be6565b5b610c9760c0610c5c565b90506000610ca784828501610b19565b6000830152506020610cbb84828501610b19565b6020830152506040610ccf84828501610b19565b6040830152506060610ce384828501610b19565b6060830152506080610cf784828501610b19565b60808301525060a0610d0b84828501610b19565b60a08301525092915050565b60008060006101008486031215610d3157610d306108de565b5b6000610d3f8682870161092c565b9350506020610d5086828701610b19565b9250506040610d6186828701610c77565b9150509250925092565b60c082016000820151610d816000850182610a4e565b506020820151610d946020850182610a4e565b506040820151610da76040850182610a4e565b506060820151610dba6060850182610a4e565b506080820151610dcd6080850182610a4e565b5060a0820151610de060a0850182610a4e565b50505050565b600060c082019050610dfb6000830184610d6b565b92915050565b600082825260208201905092915050565b7f4170794f7261636c653a2063616c6c6572206973206e6f74207468652064617460008201527f6120666565640000000000000000000000000000000000000000000000000000602082015250565b6000610e6e602683610e01565b9150610e7982610e12565b604082019050919050565b60006020820190508181036000830152610e9d81610e61565b9050919050565b7f494e6f6465436f6e74696e756974794f7261636c653a2074696d657374616d7060008201527f20616c7265616479206578697374730000000000000000000000000000000000602082015250565b6000610f00602f83610e01565b9150610f0b82610ea4565b604082019050919050565b60006020820190508181036000830152610f2f81610ef3565b9050919050565b6000819050919050565b6000610f5b610f56610f51846109b7565b610f36565b610941565b9050919050565b610f6b81610f40565b82525050565b6000604082019050610f8660008301856109cb565b610f936020830184610f62565b939250505056fea2646970667358221220c4c4fc522639b19a2e0af9e27e53d6144990befdfe7830c1df3bd68e0d6e79ae64736f6c63430008110033",
  "linkReferences": {},
  "deployedLinkReferences": {}
}